{
  "_format": "hh-sol-artifact-1",
  "contractName": "Achievements1155Upgradeable",
  "sourceName": "src/Achievements1155Upgradeable.sol",
  "abi": [
    {
      "inputs": [],
      "name": "AccessControlBadConfirmation",
      "type": "error"
    },
    {
      "inputs": [
        {
          "internalType": "address",
          "name": "account",
          "type": "address"
        },
        {
          "internalType": "bytes32",
          "name": "neededRole",
          "type": "bytes32"
        }
      ],
      "name": "AccessControlUnauthorizedAccount",
      "type": "error"
    },
    {
      "inputs": [
        {
          "internalType": "address",
          "name": "target",
          "type": "address"
        }
      ],
      "name": "AddressEmptyCode",
      "type": "error"
    },
    {
      "inputs": [
        {
          "internalType": "address",
          "name": "sender",
          "type": "address"
        },
        {
          "internalType": "uint256",
          "name": "balance",
          "type": "uint256"
        },
        {
          "internalType": "uint256",
          "name": "needed",
          "type": "uint256"
        },
        {
          "internalType": "uint256",
          "name": "tokenId",
          "type": "uint256"
        }
      ],
      "name": "ERC1155InsufficientBalance",
      "type": "error"
    },
    {
      "inputs": [
        {
          "internalType": "address",
          "name": "approver",
          "type": "address"
        }
      ],
      "name": "ERC1155InvalidApprover",
      "type": "error"
    },
    {
      "inputs": [
        {
          "internalType": "uint256",
          "name": "idsLength",
          "type": "uint256"
        },
        {
          "internalType": "uint256",
          "name": "valuesLength",
          "type": "uint256"
        }
      ],
      "name": "ERC1155InvalidArrayLength",
      "type": "error"
    },
    {
      "inputs": [
        {
          "internalType": "address",
          "name": "operator",
          "type": "address"
        }
      ],
      "name": "ERC1155InvalidOperator",
      "type": "error"
    },
    {
      "inputs": [
        {
          "internalType": "address",
          "name": "receiver",
          "type": "address"
        }
      ],
      "name": "ERC1155InvalidReceiver",
      "type": "error"
    },
    {
      "inputs": [
        {
          "internalType": "address",
          "name": "sender",
          "type": "address"
        }
      ],
      "name": "ERC1155InvalidSender",
      "type": "error"
    },
    {
      "inputs": [
        {
          "internalType": "address",
          "name": "operator",
          "type": "address"
        },
        {
          "internalType": "address",
          "name": "owner",
          "type": "address"
        }
      ],
      "name": "ERC1155MissingApprovalForAll",
      "type": "error"
    },
    {
      "inputs": [
        {
          "internalType": "address",
          "name": "implementation",
          "type": "address"
        }
      ],
      "name": "ERC1967InvalidImplementation",
      "type": "error"
    },
    {
      "inputs": [],
      "name": "ERC1967NonPayable",
      "type": "error"
    },
    {
      "inputs": [],
      "name": "FailedCall",
      "type": "error"
    },
    {
      "inputs": [],
      "name": "InvalidInitialization",
      "type": "error"
    },
    {
      "inputs": [],
      "name": "NotInitializing",
      "type": "error"
    },
    {
      "inputs": [],
      "name": "UUPSUnauthorizedCallContext",
      "type": "error"
    },
    {
      "inputs": [
        {
          "internalType": "bytes32",
          "name": "slot",
          "type": "bytes32"
        }
      ],
      "name": "UUPSUnsupportedProxiableUUID",
      "type": "error"
    },
    {
      "anonymous": false,
      "inputs": [
        {
          "indexed": true,
          "internalType": "address",
          "name": "account",
          "type": "address"
        },
        {
          "indexed": true,
          "internalType": "address",
          "name": "operator",
          "type": "address"
        },
        {
          "indexed": false,
          "internalType": "bool",
          "name": "approved",
          "type": "bool"
        }
      ],
      "name": "ApprovalForAll",
      "type": "event"
    },
    {
      "anonymous": false,
      "inputs": [
        {
          "indexed": false,
          "internalType": "uint64",
          "name": "version",
          "type": "uint64"
        }
      ],
      "name": "Initialized",
      "type": "event"
    },
    {
      "anonymous": false,
      "inputs": [
        {
          "indexed": true,
          "internalType": "bytes32",
          "name": "role",
          "type": "bytes32"
        },
        {
          "indexed": true,
          "internalType": "bytes32",
          "name": "previousAdminRole",
          "type": "bytes32"
        },
        {
          "indexed": true,
          "internalType": "bytes32",
          "name": "newAdminRole",
          "type": "bytes32"
        }
      ],
      "name": "RoleAdminChanged",
      "type": "event"
    },
    {
      "anonymous": false,
      "inputs": [
        {
          "indexed": true,
          "internalType": "bytes32",
          "name": "role",
          "type": "bytes32"
        },
        {
          "indexed": true,
          "internalType": "address",
          "name": "account",
          "type": "address"
        },
        {
          "indexed": true,
          "internalType": "address",
          "name": "sender",
          "type": "address"
        }
      ],
      "name": "RoleGranted",
      "type": "event"
    },
    {
      "anonymous": false,
      "inputs": [
        {
          "indexed": true,
          "internalType": "bytes32",
          "name": "role",
          "type": "bytes32"
        },
        {
          "indexed": true,
          "internalType": "address",
          "name": "account",
          "type": "address"
        },
        {
          "indexed": true,
          "internalType": "address",
          "name": "sender",
          "type": "address"
        }
      ],
      "name": "RoleRevoked",
      "type": "event"
    },
    {
      "anonymous": false,
      "inputs": [
        {
          "indexed": true,
          "internalType": "address",
          "name": "operator",
          "type": "address"
        },
        {
          "indexed": true,
          "internalType": "address",
          "name": "from",
          "type": "address"
        },
        {
          "indexed": true,
          "internalType": "address",
          "name": "to",
          "type": "address"
        },
        {
          "indexed": false,
          "internalType": "uint256[]",
          "name": "ids",
          "type": "uint256[]"
        },
        {
          "indexed": false,
          "internalType": "uint256[]",
          "name": "values",
          "type": "uint256[]"
        }
      ],
      "name": "TransferBatch",
      "type": "event"
    },
    {
      "anonymous": false,
      "inputs": [
        {
          "indexed": true,
          "internalType": "address",
          "name": "operator",
          "type": "address"
        },
        {
          "indexed": true,
          "internalType": "address",
          "name": "from",
          "type": "address"
        },
        {
          "indexed": true,
          "internalType": "address",
          "name": "to",
          "type": "address"
        },
        {
          "indexed": false,
          "internalType": "uint256",
          "name": "id",
          "type": "uint256"
        },
        {
          "indexed": false,
          "internalType": "uint256",
          "name": "value",
          "type": "uint256"
        }
      ],
      "name": "TransferSingle",
      "type": "event"
    },
    {
      "anonymous": false,
      "inputs": [
        {
          "indexed": false,
          "internalType": "string",
          "name": "value",
          "type": "string"
        },
        {
          "indexed": true,
          "internalType": "uint256",
          "name": "id",
          "type": "uint256"
        }
      ],
      "name": "URI",
      "type": "event"
    },
    {
      "anonymous": false,
      "inputs": [
        {
          "indexed": true,
          "internalType": "address",
          "name": "implementation",
          "type": "address"
        }
      ],
      "name": "Upgraded",
      "type": "event"
    },
    {
      "inputs": [],
      "name": "DEFAULT_ADMIN_ROLE",
      "outputs": [
        {
          "internalType": "bytes32",
          "name": "",
          "type": "bytes32"
        }
      ],
      "stateMutability": "view",
      "type": "function"
    },
    {
      "inputs": [],
      "name": "SIGNER_ROLE",
      "outputs": [
        {
          "internalType": "bytes32",
          "name": "",
          "type": "bytes32"
        }
      ],
      "stateMutability": "view",
      "type": "function"
    },
    {
      "inputs": [],
      "name": "UPGRADER_ROLE",
      "outputs": [
        {
          "internalType": "bytes32",
          "name": "",
          "type": "bytes32"
        }
      ],
      "stateMutability": "view",
      "type": "function"
    },
    {
      "inputs": [],
      "name": "UPGRADE_INTERFACE_VERSION",
      "outputs": [
        {
          "internalType": "string",
          "name": "",
          "type": "string"
        }
      ],
      "stateMutability": "view",
      "type": "function"
    },
    {
      "inputs": [
        {
          "internalType": "uint256",
          "name": "",
          "type": "uint256"
        }
      ],
      "name": "achievements",
      "outputs": [
        {
          "internalType": "bool",
          "name": "enabled",
          "type": "bool"
        },
        {
          "internalType": "bool",
          "name": "soulbound",
          "type": "bool"
        },
        {
          "internalType": "string",
          "name": "uri",
          "type": "string"
        }
      ],
      "stateMutability": "view",
      "type": "function"
    },
    {
      "inputs": [
        {
          "internalType": "address",
          "name": "account",
          "type": "address"
        },
        {
          "internalType": "uint256",
          "name": "id",
          "type": "uint256"
        }
      ],
      "name": "balanceOf",
      "outputs": [
        {
          "internalType": "uint256",
          "name": "",
          "type": "uint256"
        }
      ],
      "stateMutability": "view",
      "type": "function"
    },
    {
      "inputs": [
        {
          "internalType": "address[]",
          "name": "accounts",
          "type": "address[]"
        },
        {
          "internalType": "uint256[]",
          "name": "ids",
          "type": "uint256[]"
        }
      ],
      "name": "balanceOfBatch",
      "outputs": [
        {
          "internalType": "uint256[]",
          "name": "",
          "type": "uint256[]"
        }
      ],
      "stateMutability": "view",
      "type": "function"
    },
    {
      "inputs": [],
      "name": "baseURI",
      "outputs": [
        {
          "internalType": "string",
          "name": "",
          "type": "string"
        }
      ],
      "stateMutability": "view",
      "type": "function"
    },
    {
      "inputs": [],
      "name": "domainSeparator",
      "outputs": [
        {
          "internalType": "bytes32",
          "name": "",
          "type": "bytes32"
        }
      ],
      "stateMutability": "view",
      "type": "function"
    },
    {
      "inputs": [
        {
          "internalType": "uint256",
          "name": "id",
          "type": "uint256"
        }
      ],
      "name": "exists",
      "outputs": [
        {
          "internalType": "bool",
          "name": "",
          "type": "bool"
        }
      ],
      "stateMutability": "view",
      "type": "function"
    },
    {
      "inputs": [
        {
          "internalType": "bytes32",
          "name": "role",
          "type": "bytes32"
        }
      ],
      "name": "getRoleAdmin",
      "outputs": [
        {
          "internalType": "bytes32",
          "name": "",
          "type": "bytes32"
        }
      ],
      "stateMutability": "view",
      "type": "function"
    },
    {
      "inputs": [
        {
          "internalType": "bytes32",
          "name": "role",
          "type": "bytes32"
        },
        {
          "internalType": "address",
          "name": "account",
          "type": "address"
        }
      ],
      "name": "grantRole",
      "outputs": [],
      "stateMutability": "nonpayable",
      "type": "function"
    },
    {
      "inputs": [
        {
          "internalType": "uint256",
          "name": "",
          "type": "uint256"
        },
        {
          "internalType": "address",
          "name": "",
          "type": "address"
        }
      ],
      "name": "hasMinted",
      "outputs": [
        {
          "internalType": "bool",
          "name": "",
          "type": "bool"
        }
      ],
      "stateMutability": "view",
      "type": "function"
    },
    {
      "inputs": [
        {
          "internalType": "bytes32",
          "name": "role",
          "type": "bytes32"
        },
        {
          "internalType": "address",
          "name": "account",
          "type": "address"
        }
      ],
      "name": "hasRole",
      "outputs": [
        {
          "internalType": "bool",
          "name": "",
          "type": "bool"
        }
      ],
      "stateMutability": "view",
      "type": "function"
    },
    {
      "inputs": [
        {
          "internalType": "string",
          "name": "_name",
          "type": "string"
        },
        {
          "internalType": "string",
          "name": "_symbol",
          "type": "string"
        },
        {
          "internalType": "string",
          "name": "_baseURI",
          "type": "string"
        },
        {
          "internalType": "address",
          "name": "admin",
          "type": "address"
        },
        {
          "internalType": "address",
          "name": "signer",
          "type": "address"
        }
      ],
      "name": "initialize",
      "outputs": [],
      "stateMutability": "nonpayable",
      "type": "function"
    },
    {
      "inputs": [
        {
          "internalType": "address",
          "name": "account",
          "type": "address"
        },
        {
          "internalType": "address",
          "name": "operator",
          "type": "address"
        }
      ],
      "name": "isApprovedForAll",
      "outputs": [
        {
          "internalType": "bool",
          "name": "",
          "type": "bool"
        }
      ],
      "stateMutability": "view",
      "type": "function"
    },
    {
      "inputs": [
        {
          "internalType": "address",
          "name": "to",
          "type": "address"
        },
        {
          "internalType": "uint256",
          "name": "id",
          "type": "uint256"
        },
        {
          "internalType": "uint256",
          "name": "deadline",
          "type": "uint256"
        },
        {
          "internalType": "bytes32",
          "name": "nonce",
          "type": "bytes32"
        },
        {
          "internalType": "bytes",
          "name": "signature",
          "type": "bytes"
        }
      ],
      "name": "mintWithPermit",
      "outputs": [],
      "stateMutability": "nonpayable",
      "type": "function"
    },
    {
      "inputs": [],
      "name": "name",
      "outputs": [
        {
          "internalType": "string",
          "name": "",
          "type": "string"
        }
      ],
      "stateMutability": "view",
      "type": "function"
    },
    {
      "inputs": [],
      "name": "proxiableUUID",
      "outputs": [
        {
          "internalType": "bytes32",
          "name": "",
          "type": "bytes32"
        }
      ],
      "stateMutability": "view",
      "type": "function"
    },
    {
      "inputs": [
        {
          "internalType": "bytes32",
          "name": "role",
          "type": "bytes32"
        },
        {
          "internalType": "address",
          "name": "callerConfirmation",
          "type": "address"
        }
      ],
      "name": "renounceRole",
      "outputs": [],
      "stateMutability": "nonpayable",
      "type": "function"
    },
    {
      "inputs": [
        {
          "internalType": "bytes32",
          "name": "role",
          "type": "bytes32"
        },
        {
          "internalType": "address",
          "name": "account",
          "type": "address"
        }
      ],
      "name": "revokeRole",
      "outputs": [],
      "stateMutability": "nonpayable",
      "type": "function"
    },
    {
      "inputs": [
        {
          "internalType": "address",
          "name": "from",
          "type": "address"
        },
        {
          "internalType": "address",
          "name": "to",
          "type": "address"
        },
        {
          "internalType": "uint256[]",
          "name": "ids",
          "type": "uint256[]"
        },
        {
          "internalType": "uint256[]",
          "name": "values",
          "type": "uint256[]"
        },
        {
          "internalType": "bytes",
          "name": "data",
          "type": "bytes"
        }
      ],
      "name": "safeBatchTransferFrom",
      "outputs": [],
      "stateMutability": "nonpayable",
      "type": "function"
    },
    {
      "inputs": [
        {
          "internalType": "address",
          "name": "from",
          "type": "address"
        },
        {
          "internalType": "address",
          "name": "to",
          "type": "address"
        },
        {
          "internalType": "uint256",
          "name": "id",
          "type": "uint256"
        },
        {
          "internalType": "uint256",
          "name": "value",
          "type": "uint256"
        },
        {
          "internalType": "bytes",
          "name": "data",
          "type": "bytes"
        }
      ],
      "name": "safeTransferFrom",
      "outputs": [],
      "stateMutability": "nonpayable",
      "type": "function"
    },
    {
      "inputs": [
        {
          "internalType": "uint256",
          "name": "id",
          "type": "uint256"
        },
        {
          "internalType": "bool",
          "name": "enabled",
          "type": "bool"
        },
        {
          "internalType": "bool",
          "name": "soulbound",
          "type": "bool"
        },
        {
          "internalType": "string",
          "name": "perIdURI",
          "type": "string"
        }
      ],
      "name": "setAchievement",
      "outputs": [],
      "stateMutability": "nonpayable",
      "type": "function"
    },
    {
      "inputs": [
        {
          "internalType": "address",
          "name": "operator",
          "type": "address"
        },
        {
          "internalType": "bool",
          "name": "approved",
          "type": "bool"
        }
      ],
      "name": "setApprovalForAll",
      "outputs": [],
      "stateMutability": "nonpayable",
      "type": "function"
    },
    {
      "inputs": [
        {
          "internalType": "string",
          "name": "newBase",
          "type": "string"
        }
      ],
      "name": "setBaseURI",
      "outputs": [],
      "stateMutability": "nonpayable",
      "type": "function"
    },
    {
      "inputs": [
        {
          "internalType": "bytes4",
          "name": "interfaceId",
          "type": "bytes4"
        }
      ],
      "name": "supportsInterface",
      "outputs": [
        {
          "internalType": "bool",
          "name": "",
          "type": "bool"
        }
      ],
      "stateMutability": "view",
      "type": "function"
    },
    {
      "inputs": [],
      "name": "symbol",
      "outputs": [
        {
          "internalType": "string",
          "name": "",
          "type": "string"
        }
      ],
      "stateMutability": "view",
      "type": "function"
    },
    {
      "inputs": [],
      "name": "totalSupply",
      "outputs": [
        {
          "internalType": "uint256",
          "name": "",
          "type": "uint256"
        }
      ],
      "stateMutability": "view",
      "type": "function"
    },
    {
      "inputs": [
        {
          "internalType": "uint256",
          "name": "id",
          "type": "uint256"
        }
      ],
      "name": "totalSupply",
      "outputs": [
        {
          "internalType": "uint256",
          "name": "",
          "type": "uint256"
        }
      ],
      "stateMutability": "view",
      "type": "function"
    },
    {
      "inputs": [
        {
          "internalType": "address",
          "name": "newImplementation",
          "type": "address"
        },
        {
          "internalType": "bytes",
          "name": "data",
          "type": "bytes"
        }
      ],
      "name": "upgradeToAndCall",
      "outputs": [],
      "stateMutability": "payable",
      "type": "function"
    },
    {
      "inputs": [
        {
          "internalType": "uint256",
          "name": "id",
          "type": "uint256"
        }
      ],
      "name": "uri",
      "outputs": [
        {
          "internalType": "string",
          "name": "",
          "type": "string"
        }
      ],
      "stateMutability": "view",
      "type": "function"
    },
    {
      "inputs": [
        {
          "internalType": "address",
          "name": "",
          "type": "address"
        },
        {
          "internalType": "uint256",
          "name": "",
          "type": "uint256"
        }
      ],
      "name": "usedNonces",
      "outputs": [
        {
          "internalType": "bool",
          "name": "",
          "type": "bool"
        }
      ],
      "stateMutability": "view",
      "type": "function"
    }
  ],
  "bytecode": "0x60a06040523060805234801561001457600080fd5b50608051612ff661003e600039600081816113f60152818161141f01526115840152612ff66000f3fe6080604052600436106101ed5760003560e01c806355f804b31161010d578063a22cb465116100a0578063d6d0faee1161006f578063d6d0faee14610645578063e985e9c514610665578063f242432a14610685578063f698da25146106a5578063f72c0d8b146106ba57600080fd5b8063a22cb46514610588578063ad3cb1cc146105a8578063bd85b039146105d9578063d547741f1461062557600080fd5b806391d14854116100dc57806391d148541461050a57806395d89b411461052a578063a1ebf35d1461053f578063a217fddf1461057357600080fd5b806355f804b31461047a5780636a8a68941461049a5780636c0360eb146104d557806378ad847c146104ea57600080fd5b806327aed72e116101855780634e1273f4116101545780634e1273f4146103d75780634f1ef286146104045780634f558e791461041757806352d1902d1461046557600080fd5b806327aed72e146103485780632eb2c2d6146103775780632f2ff15d1461039757806336568abe146103b757600080fd5b806306fdde03116101c157806306fdde03146102b25780630e89341c146102d457806318160ddd146102f4578063248a9ca31461032857600080fd5b8062fdd58e146101f257806301ffc9a714610225578063034fc4b8146102555780630378073314610277575b600080fd5b3480156101fe57600080fd5b5061021261020d3660046123f9565b6106ee565b6040519081526020015b60405180910390f35b34801561023157600080fd5b50610245610240366004612439565b610725565b604051901515815260200161021c565b34801561026157600080fd5b506102756102703660046124ae565b610730565b005b34801561028357600080fd5b5061024561029236600461251c565b600160209081526000928352604080842090915290825290205460ff1681565b3480156102be57600080fd5b506102c76107e5565b60405161021c9190612598565b3480156102e057600080fd5b506102c76102ef3660046125ab565b610873565b34801561030057600080fd5b507f4a593662ee04d27b6a00ebb31be7fe0c102c2ade82a7c5d764f2df05dc4e280154610212565b34801561033457600080fd5b506102126103433660046125ab565b610956565b34801561035457600080fd5b506103686103633660046125ab565b610978565b60405161021c939291906125c4565b34801561038357600080fd5b5061027561039236600461272e565b610a2a565b3480156103a357600080fd5b506102756103b236600461251c565b610a96565b3480156103c357600080fd5b506102756103d236600461251c565b610ab8565b3480156103e357600080fd5b506103f76103f23660046127d7565b610af0565b60405161021c91906128d2565b6102756104123660046128e5565b610bbc565b34801561042357600080fd5b506102456104323660046125ab565b60009081527f4a593662ee04d27b6a00ebb31be7fe0c102c2ade82a7c5d764f2df05dc4e28006020526040902054151590565b34801561047157600080fd5b50610212610bdb565b34801561048657600080fd5b50610275610495366004612928565b610bf8565b3480156104a657600080fd5b506102456104b53660046123f9565b600660209081526000928352604080842090915290825290205460ff1681565b3480156104e157600080fd5b506102c7610c58565b3480156104f657600080fd5b50610275610505366004612969565b610c65565b34801561051657600080fd5b5061024561052536600461251c565b610ed1565b34801561053657600080fd5b506102c7610f09565b34801561054b57600080fd5b506102127fe2f4eaae4a9751e85a3e4a7b9587827a877f29914755229b07a7b2da98285f7081565b34801561057f57600080fd5b50610212600081565b34801561059457600080fd5b506102756105a33660046129d9565b610f16565b3480156105b457600080fd5b506102c7604051806040016040528060058152602001640352e302e360dc1b81525081565b3480156105e557600080fd5b506102126105f43660046125ab565b60009081527f4a593662ee04d27b6a00ebb31be7fe0c102c2ade82a7c5d764f2df05dc4e2800602052604090205490565b34801561063157600080fd5b5061027561064036600461251c565b610f21565b34801561065157600080fd5b50610275610660366004612a03565b610f3d565b34801561067157600080fd5b50610245610680366004612aac565b6110f3565b34801561069157600080fd5b506102756106a0366004612ad6565b611140565b3480156106b157600080fd5b50600554610212565b3480156106c657600080fd5b506102127f189ab7a9244df0848122154315af71fe140f3db0fe014031783b0946b8c9d2e381565b6000818152600080516020612f81833981519152602090815260408083206001600160a01b03861684529091529020545b92915050565b600061071f8261119f565b600061073b816111c4565b60405180606001604052808615158152602001851515815260200184848080601f01602080910402602001604051908101604052809392919081815260200183838082843760009201829052509390945250508881526020818152604091829020845181549286015161ffff1990931690151561ff00191617610100921515929092029190911781559083015190915060018201906107da9082612bbc565b505050505050505050565b600280546107f290612b3a565b80601f016020809104026020016040519081016040528092919081815260200182805461081e90612b3a565b801561086b5780601f106108405761010080835404028352916020019161086b565b820191906000526020600020905b81548152906001019060200180831161084e57829003601f168201915b505050505081565b60008181526020819052604081206001018054606092919061089490612b3a565b80601f01602080910402602001604051908101604052809291908181526020018280546108c090612b3a565b801561090d5780601f106108e25761010080835404028352916020019161090d565b820191906000526020600020905b8154815290600101906020018083116108f057829003601f168201915b5050505050905080516000146109235792915050565b600461092e846111d1565b60405160200161093f929190612cee565b604051602081830303815290604052915050919050565b6000908152600080516020612fa1833981519152602052604090206001015490565b6000602081905290815260409020805460018201805460ff80841694610100909404169291906109a790612b3a565b80601f01602080910402602001604051908101604052809291908181526020018280546109d390612b3a565b8015610a205780601f106109f557610100808354040283529160200191610a20565b820191906000526020600020905b815481529060010190602001808311610a0357829003601f168201915b5050505050905083565b336001600160a01b0386168114801590610a4b5750610a4986826110f3565b155b15610a815760405163711bec9160e11b81526001600160a01b038083166004830152871660248201526044015b60405180910390fd5b610a8e8686868686611263565b505050505050565b610a9f82610956565b610aa8816111c4565b610ab283836112ca565b50505050565b6001600160a01b0381163314610ae15760405163334bd91960e11b815260040160405180910390fd5b610aeb828261136f565b505050565b60608151835114610b215781518351604051635b05999160e01b815260048101929092526024820152604401610a78565b600083516001600160401b03811115610b3c57610b3c6125e7565b604051908082528060200260200182016040528015610b65578160200160208202803683370190505b50905060005b8451811015610bb457602080820286010151610b8f906020808402870101516106ee565b828281518110610ba157610ba1612d23565b6020908102919091010152600101610b6b565b509392505050565b610bc46113eb565b610bcd82611492565b610bd782826114bc565b5050565b6000610be5611579565b50600080516020612f6183398151915290565b6000610c03816111c4565b6004610c10838583612d39565b5060007f6bb7ff708619ba0610cba295a58592e0451dee2622938c8755667688daf3529b610c3e6000610873565b604051610c4b9190612598565b60405180910390a2505050565b600480546107f290612b3a565b60008581526020819052604090205460ff16610cae5760405162461bcd60e51b8152602060048201526008602482015267191a5cd8589b195960c21b6044820152606401610a78565b83421115610ce85760405162461bcd60e51b8152602060048201526007602482015266195e1c1a5c995960ca1b6044820152606401610a78565b6001600160a01b038616600090815260066020908152604080832086845290915290205460ff1615610d495760405162461bcd60e51b815260206004820152600a6024820152691b9bdb98d9481d5cd95960b21b6044820152606401610a78565b60008581526001602090815260408083206001600160a01b038a16845290915290205460ff1615610dad5760405162461bcd60e51b815260206004820152600e60248201526d185b1c9958591e481b5a5b9d195960921b6044820152606401610a78565b6000610dbb878787876115c2565b90506000610dff8285858080601f01602080910402602001604051908101604052809392919081815260200183838082843760009201919091525061167992505050565b9050610e2b7fe2f4eaae4a9751e85a3e4a7b9587827a877f29914755229b07a7b2da98285f7082610ed1565b610e615760405162461bcd60e51b81526020600482015260076024820152666261642073696760c81b6044820152606401610a78565b6001600160a01b038816600081815260066020908152604080832089845282528083208054600160ff1991821681179092558c85528184528285209585529483528184208054909516811790945580519182019052908152610ec7918a918a9190611746565b5050505050505050565b6000918252600080516020612fa1833981519152602090815260408084206001600160a01b0393909316845291905290205460ff1690565b600380546107f290612b3a565b610bd73383836117a3565b610f2a82610956565b610f33816111c4565b610ab2838361136f565b6000610f4761184b565b805490915060ff600160401b82041615906001600160401b0316600081158015610f6e5750825b90506000826001600160401b03166001148015610f8a5750303b155b905081158015610f98575080155b15610fb65760405163f92ee8a960e01b815260040160405180910390fd5b845467ffffffffffffffff191660011785558315610fe057845460ff60401b1916600160401b1785555b610ff860405180602001604052806000815250611874565b611000611885565b611008611885565b611010611885565b600261101c8b82612bbc565b5060036110298a82612bbc565b5060046110368982612bbc565b506110426000886112ca565b5061106d7f189ab7a9244df0848122154315af71fe140f3db0fe014031783b0946b8c9d2e3886112ca565b506110987fe2f4eaae4a9751e85a3e4a7b9587827a877f29914755229b07a7b2da98285f70876112ca565b506110a161188d565b83156110e757845460ff60401b19168555604051600181527fc7f505b2f371ae2175ee4913f4499e1f2633a7b5936321eed1cdaeb6115181d29060200160405180910390a15b50505050505050505050565b6001600160a01b0391821660009081527f88be536d5240c274a3b1d3a1be54482fd9caa294f08c62a7cde569f49a3c45016020908152604080832093909416825291909152205460ff1690565b336001600160a01b0386168114801590611161575061115f86826110f3565b155b156111925760405163711bec9160e11b81526001600160a01b03808316600483015287166024820152604401610a78565b610a8e868686868661193c565b60006001600160e01b03198216637965db0b60e01b148061071f575061071f826119ca565b6111ce8133611a1a565b50565b606060006111de83611a53565b60010190506000816001600160401b038111156111fd576111fd6125e7565b6040519080825280601f01601f191660200182016040528015611227576020820181803683370190505b5090508181016020015b600019016f181899199a1a9b1b9c1cb0b131b232b360811b600a86061a8153600a850494508461123157509392505050565b6001600160a01b03841661128d57604051632bfa23e760e11b815260006004820152602401610a78565b6001600160a01b0385166112b657604051626a0d4560e21b815260006004820152602401610a78565b6112c38585858585611b2b565b5050505050565b6000600080516020612fa18339815191526112e58484610ed1565b611365576000848152602082815260408083206001600160a01b03871684529091529020805460ff1916600117905561131b3390565b6001600160a01b0316836001600160a01b0316857f2f8788117e7eff1d82e926ec794901d17c78024a50270940304540a733656f0d60405160405180910390a4600191505061071f565b600091505061071f565b6000600080516020612fa183398151915261138a8484610ed1565b15611365576000848152602082815260408083206001600160a01b0387168085529252808320805460ff1916905551339287917ff6391f5c32d9c69d2a47ea670b442974b53935d1edc7fd64eb21e047a839171b9190a4600191505061071f565b306001600160a01b037f000000000000000000000000000000000000000000000000000000000000000016148061147257507f00000000000000000000000000000000000000000000000000000000000000006001600160a01b0316611466600080516020612f61833981519152546001600160a01b031690565b6001600160a01b031614155b156114905760405163703e46dd60e11b815260040160405180910390fd5b565b7f189ab7a9244df0848122154315af71fe140f3db0fe014031783b0946b8c9d2e3610bd7816111c4565b816001600160a01b03166352d1902d6040518163ffffffff1660e01b8152600401602060405180830381865afa925050508015611516575060408051601f3d908101601f1916820190925261151391810190612df8565b60015b61153e57604051634c9c8ce360e01b81526001600160a01b0383166004820152602401610a78565b600080516020612f61833981519152811461156f57604051632a87526960e21b815260048101829052602401610a78565b610aeb8383611b7e565b306001600160a01b037f000000000000000000000000000000000000000000000000000000000000000016146114905760405163703e46dd60e11b815260040160405180910390fd5b600554604080517f18ee0c6e30bf6cd4d37bc78510848a916e713be58f7d4ebf54cd34e2f446b5e560208201526001600160a01b03871691810191909152606081018590526080810184905260a081018390526000919060c0016040516020818303038152906040528051906020012060405160200161165992919061190160f01b81526002810192909252602282015260420190565b604051602081830303815290604052805190602001209050949350505050565b6000815160411461168c5750600061071f565b60208201516040830151606084015160001a601b8110156116b5576116b2601b82612e27565b90505b8060ff16601b141580156116cd57508060ff16601c14155b156116de576000935050505061071f565b60408051600081526020810180835288905260ff831691810191909152606081018490526080810183905260019060a0016020604051602081039080840390855afa158015611731573d6000803e3d6000fd5b5050604051601f190151979650505050505050565b6001600160a01b03841661177057604051632bfa23e760e11b815260006004820152602401610a78565b60408051600180825260208201869052818301908152606082018590526080820190925290610a8e600087848487611b2b565b600080516020612f818339815191526001600160a01b0383166117db5760405162ced3e160e81b815260006004820152602401610a78565b6001600160a01b038481166000818152600184016020908152604080832094881680845294825291829020805460ff191687151590811790915591519182527f17307eab39ab6107e8899845ad3d59bd9653f200f220920489ca2b5937696c31910160405180910390a350505050565b6000807ff0c57e16840df040f15088dc2f81fe391c3923bec73e23a9662efc9c229c6a0061071f565b61187c611bd4565b6111ce81611bf9565b611490611bd4565b7f8b73c3c69bb8fe3d512ecc4cf759cc79239f7b179b0ffacaa9a75d522b39400f60026040516118bd9190612e40565b60408051918290038220828201825260018352603160f81b6020938401528151928301939093528101919091527fc89efdaa54c0f20c7adf612882df0950f5a951637e0307cdcb4c672f298b8bc660608201524660808201523060a082015260c00160408051601f198184030181529190528051602090910120600555565b6001600160a01b03841661196657604051632bfa23e760e11b815260006004820152602401610a78565b6001600160a01b03851661198f57604051626a0d4560e21b815260006004820152602401610a78565b604080516001808252602082018690528183019081526060820185905260808201909252906119c18787848487611b2b565b50505050505050565b60006001600160e01b03198216636cdb3d1360e11b14806119fb57506001600160e01b031982166303a24d0760e21b145b8061071f57506301ffc9a760e01b6001600160e01b031983161461071f565b611a248282610ed1565b610bd75760405163e2517d3f60e01b81526001600160a01b038216600482015260248101839052604401610a78565b60008072184f03e93ff9f4daa797ed6e38ed64bf6a1f0160401b8310611a925772184f03e93ff9f4daa797ed6e38ed64bf6a1f0160401b830492506040015b6d04ee2d6d415b85acef81000000008310611abe576d04ee2d6d415b85acef8100000000830492506020015b662386f26fc100008310611adc57662386f26fc10000830492506010015b6305f5e1008310611af4576305f5e100830492506008015b6127108310611b0857612710830492506004015b60648310611b1a576064830492506002015b600a831061071f5760010192915050565b611b3785858585611c0a565b6001600160a01b038416156112c35782513390600103611b705760208481015190840151611b69838989858589611cc6565b5050610a8e565b610a8e818787878787611dea565b611b8782611ed3565b6040516001600160a01b038316907fbc7cd75a20ee27fd9adebab32041f755214dbc6bffa90cc0225b39da2e5c2d3b90600090a2805115611bcc57610aeb8282611f38565b610bd7611fae565b611bdc611fcd565b61149057604051631afcd79f60e31b815260040160405180910390fd5b611c01611bd4565b6111ce81611fe7565b6001600160a01b03841615801590611c2a57506001600160a01b03831615155b15611cba5760005b8251811015611cb857600080848381518110611c5057611c50612d23565b6020026020010151815260200190815260200160002060000160019054906101000a900460ff1615611cb05760405162461bcd60e51b81526020600482015260096024820152681cdbdd5b189bdd5b9960ba1b6044820152606401610a78565b600101611c32565b505b610ab284848484612021565b6001600160a01b0384163b15610a8e5760405163f23a6e6160e01b81526001600160a01b0385169063f23a6e6190611d0a9089908990889088908890600401612e4c565b6020604051808303816000875af1925050508015611d45575060408051601f3d908101601f19168201909252611d4291810190612e91565b60015b611dae573d808015611d73576040519150601f19603f3d011682016040523d82523d6000602084013e611d78565b606091505b508051600003611da657604051632bfa23e760e11b81526001600160a01b0386166004820152602401610a78565b805160208201fd5b6001600160e01b0319811663f23a6e6160e01b146119c157604051632bfa23e760e11b81526001600160a01b0386166004820152602401610a78565b6001600160a01b0384163b15610a8e5760405163bc197c8160e01b81526001600160a01b0385169063bc197c8190611e2e9089908990889088908890600401612eae565b6020604051808303816000875af1925050508015611e69575060408051601f3d908101601f19168201909252611e6691810190612e91565b60015b611e97573d808015611d73576040519150601f19603f3d011682016040523d82523d6000602084013e611d78565b6001600160e01b0319811663bc197c8160e01b146119c157604051632bfa23e760e11b81526001600160a01b0386166004820152602401610a78565b806001600160a01b03163b600003611f0957604051634c9c8ce360e01b81526001600160a01b0382166004820152602401610a78565b600080516020612f6183398151915280546001600160a01b0319166001600160a01b0392909216919091179055565b6060600080846001600160a01b031684604051611f559190612f0c565b600060405180830381855af49150503d8060008114611f90576040519150601f19603f3d011682016040523d82523d6000602084013e611f95565b606091505b5091509150611fa5858383612131565b95945050505050565b34156114905760405163b398979f60e01b815260040160405180910390fd5b6000611fd761184b565b54600160401b900460ff16919050565b600080516020612f818339815191527f88be536d5240c274a3b1d3a1be54482fd9caa294f08c62a7cde569f49a3c4502610aeb8382612bbc565b7f4a593662ee04d27b6a00ebb31be7fe0c102c2ade82a7c5d764f2df05dc4e280061204e85858585612190565b6001600160a01b0385166120cf576000805b84518110156120b357602081810285810182015190870182015160009081529185905260408220805491928392612098908490612f28565b909155506120a890508184612f28565b925050600101612060565b50808260010160008282546120c89190612f28565b9091555050505b6001600160a01b0384166112c3576000805b845181101561211d57602081810285810182015190870182015160009081529185905260409091208054829003905591909101906001016120e1565b506001820180549190910390555050505050565b60608261214657612141826123b5565b612189565b815115801561215d57506001600160a01b0384163b155b1561218657604051639996b31560e01b81526001600160a01b0385166004820152602401610a78565b50805b9392505050565b80518251600080516020612f8183398151915291146121cf5782518251604051635b05999160e01b815260048101929092526024820152604401610a78565b3360005b84518110156122d5576020818102868101820151908601909101516001600160a01b03891615612286576000828152602086815260408083206001600160a01b038d1684529091529020548181101561225f576040516303dee4c560e01b81526001600160a01b038b166004820152602481018290526044810183905260648101849052608401610a78565b6000838152602087815260408083206001600160a01b038e16845290915290209082900390555b6001600160a01b038816156122cb576000828152602086815260408083206001600160a01b038c168452909152812080548392906122c5908490612f28565b90915550505b50506001016121d3565b5083516001036123565760208401516000906020850151909150866001600160a01b0316886001600160a01b0316846001600160a01b03167fc3d58168c5ae7397731d063d5bbf3d657854427343f4c083240f7aacaa2d0f628585604051612347929190918252602082015260400190565b60405180910390a45050610a8e565b846001600160a01b0316866001600160a01b0316826001600160a01b03167f4a39dc06d4c0dbc64b70af90fd698a233a518aa5d07e595d983b8c0526c8f7fb87876040516123a5929190612f3b565b60405180910390a4505050505050565b8051156123c457805160208201fd5b60405163d6bda27560e01b815260040160405180910390fd5b80356001600160a01b03811681146123f457600080fd5b919050565b6000806040838503121561240c57600080fd5b612415836123dd565b946020939093013593505050565b6001600160e01b0319811681146111ce57600080fd5b60006020828403121561244b57600080fd5b813561218981612423565b803580151581146123f457600080fd5b60008083601f84011261247857600080fd5b5081356001600160401b0381111561248f57600080fd5b6020830191508360208285010111156124a757600080fd5b9250929050565b6000806000806000608086880312156124c657600080fd5b853594506124d660208701612456565b93506124e460408701612456565b925060608601356001600160401b038111156124ff57600080fd5b61250b88828901612466565b969995985093965092949392505050565b6000806040838503121561252f57600080fd5b8235915061253f602084016123dd565b90509250929050565b60005b8381101561256357818101518382015260200161254b565b50506000910152565b60008151808452612584816020860160208601612548565b601f01601f19169290920160200192915050565b602081526000612189602083018461256c565b6000602082840312156125bd57600080fd5b5035919050565b83151581528215156020820152606060408201526000611fa5606083018461256c565b634e487b7160e01b600052604160045260246000fd5b604051601f8201601f191681016001600160401b0381118282101715612625576126256125e7565b604052919050565b60006001600160401b03821115612646576126466125e7565b5060051b60200190565b600082601f83011261266157600080fd5b813560206126766126718361262d565b6125fd565b8083825260208201915060208460051b87010193508684111561269857600080fd5b602086015b848110156126b4578035835291830191830161269d565b509695505050505050565b600082601f8301126126d057600080fd5b81356001600160401b038111156126e9576126e96125e7565b6126fc601f8201601f19166020016125fd565b81815284602083860101111561271157600080fd5b816020850160208301376000918101602001919091529392505050565b600080600080600060a0868803121561274657600080fd5b61274f866123dd565b945061275d602087016123dd565b935060408601356001600160401b038082111561277957600080fd5b61278589838a01612650565b9450606088013591508082111561279b57600080fd5b6127a789838a01612650565b935060808801359150808211156127bd57600080fd5b506127ca888289016126bf565b9150509295509295909350565b600080604083850312156127ea57600080fd5b82356001600160401b038082111561280157600080fd5b818501915085601f83011261281557600080fd5b813560206128256126718361262d565b82815260059290921b8401810191818101908984111561284457600080fd5b948201945b838610156128695761285a866123dd565b82529482019490820190612849565b9650508601359250508082111561287f57600080fd5b5061288c85828601612650565b9150509250929050565b60008151808452602080850194506020840160005b838110156128c7578151875295820195908201906001016128ab565b509495945050505050565b6020815260006121896020830184612896565b600080604083850312156128f857600080fd5b612901836123dd565b915060208301356001600160401b0381111561291c57600080fd5b61288c858286016126bf565b6000806020838503121561293b57600080fd5b82356001600160401b0381111561295157600080fd5b61295d85828601612466565b90969095509350505050565b60008060008060008060a0878903121561298257600080fd5b61298b876123dd565b955060208701359450604087013593506060870135925060808701356001600160401b038111156129bb57600080fd5b6129c789828a01612466565b979a9699509497509295939492505050565b600080604083850312156129ec57600080fd5b6129f5836123dd565b915061253f60208401612456565b600080600080600060a08688031215612a1b57600080fd5b85356001600160401b0380821115612a3257600080fd5b612a3e89838a016126bf565b96506020880135915080821115612a5457600080fd5b612a6089838a016126bf565b95506040880135915080821115612a7657600080fd5b50612a83888289016126bf565b935050612a92606087016123dd565b9150612aa0608087016123dd565b90509295509295909350565b60008060408385031215612abf57600080fd5b612ac8836123dd565b915061253f602084016123dd565b600080600080600060a08688031215612aee57600080fd5b612af7866123dd565b9450612b05602087016123dd565b9350604086013592506060860135915060808601356001600160401b03811115612b2e57600080fd5b6127ca888289016126bf565b600181811c90821680612b4e57607f821691505b602082108103612b6e57634e487b7160e01b600052602260045260246000fd5b50919050565b601f821115610aeb576000816000526020600020601f850160051c81016020861015612b9d5750805b601f850160051c820191505b81811015610a8e57828155600101612ba9565b81516001600160401b03811115612bd557612bd56125e7565b612be981612be38454612b3a565b84612b74565b602080601f831160018114612c1e5760008415612c065750858301515b600019600386901b1c1916600185901b178555610a8e565b600085815260208120601f198616915b82811015612c4d57888601518255948401946001909101908401612c2e565b5085821015612c6b5787850151600019600388901b60f8161c191681555b5050505050600190811b01905550565b60008154612c8881612b3a565b60018281168015612ca05760018114612cb557612ce4565b60ff1984168752821515830287019450612ce4565b8560005260208060002060005b85811015612cdb5781548a820152908401908201612cc2565b50505082870194505b5050505092915050565b6000612cfa8285612c7b565b8351612d0a818360208801612548565b64173539b7b760d91b9101908152600501949350505050565b634e487b7160e01b600052603260045260246000fd5b6001600160401b03831115612d5057612d506125e7565b612d6483612d5e8354612b3a565b83612b74565b6000601f841160018114612d985760008515612d805750838201355b600019600387901b1c1916600186901b1783556112c3565b600083815260209020601f19861690835b82811015612dc95786850135825560209485019460019092019101612da9565b5086821015612de65760001960f88860031b161c19848701351681555b505060018560011b0183555050505050565b600060208284031215612e0a57600080fd5b5051919050565b634e487b7160e01b600052601160045260246000fd5b60ff818116838216019081111561071f5761071f612e11565b60006121898284612c7b565b6001600160a01b03868116825285166020820152604081018490526060810183905260a060808201819052600090612e869083018461256c565b979650505050505050565b600060208284031215612ea357600080fd5b815161218981612423565b6001600160a01b0386811682528516602082015260a060408201819052600090612eda90830186612896565b8281036060840152612eec8186612896565b90508281036080840152612f00818561256c565b98975050505050505050565b60008251612f1e818460208701612548565b9190910192915050565b8082018082111561071f5761071f612e11565b604081526000612f4e6040830185612896565b8281036020840152611fa5818561289656fe360894a13ba1a3210667c828492db98dca3e2076cc3735a920a3ca505d382bbc88be536d5240c274a3b1d3a1be54482fd9caa294f08c62a7cde569f49a3c450002dd7bc7dec4dceedda775e58dd541e08a116c6c53815c0bd028192f7b626800a26469706673582212206596011fedca1c818a6da1c1104cfdc1abd6d51755d915725dac5add1c96751d64736f6c63430008180033",
  "linkReferences": {},
  "deployedLinkReferences": {}
}